{
  "contractName": "Chainlink",
  "abi": [
    {
      "inputs": [],
      "name": "DEFAULT_GAS_LIMIT",
      "outputs": [
        {
          "internalType": "uint256",
          "name": "",
          "type": "uint256"
        }
      ],
      "stateMutability": "view",
      "type": "function",
      "constant": true
    },
    {
      "inputs": [],
      "name": "price",
      "outputs": [
        {
          "internalType": "int256",
          "name": "",
          "type": "int256"
        }
      ],
      "stateMutability": "view",
      "type": "function",
      "constant": true
    },
    {
      "inputs": [],
      "name": "getPrice",
      "outputs": [],
      "stateMutability": "nonpayable",
      "type": "function"
    }
  ],
  "bytecode": "0x608060405234801561001057600080fd5b5061038d806100206000396000f3fe608060405234801561001057600080fd5b50600436106100415760003560e01c806398d5fdca14610046578063a035b1fe14610050578063d6be695a1461006e575b600080fd5b61004e61008c565b005b61005861034a565b6040518082815260200191505060405180910390f35b610076610350565b6040518082815260200191505060405180910390f35b6000739326bfa02add2366b30bacb125260af641031331905060008060008373ffffffffffffffffffffffffffffffffffffffff1663feaf968c6040518163ffffffff1660e01b815260040160a06040518083038186803b1580156100f057600080fd5b505afa158015610104573d6000803e3d6000fd5b505050506040513d60a081101561011a57600080fd5b810190808051906020019092919080519060200190929190805190602001909291908051906020019092919080519060200190929190505050509350509250925081600081905550600073fe446bef1dbf7afe24e81e05bc8b271c1ba9a5609050600063f7a3080660e01b90506060818560405160240180828152602001915050604051602081830303815290604052907bffffffffffffffffffffffffffffffffffffffffffffffffffffffff19166020820180517bffffffffffffffffffffffffffffffffffffffffffffffffffffffff838183161783525050505090508273ffffffffffffffffffffffffffffffffffffffff1663dc8601b373cdd440d33d8a1cb2c53846a6b77586f87e9b481283621e84806040518463ffffffff1660e01b8152600401808473ffffffffffffffffffffffffffffffffffffffff1673ffffffffffffffffffffffffffffffffffffffff16815260200180602001838152602001828103825284818151815260200191508051906020019080838360005b838110156102b757808201518184015260208101905061029c565b50505050905090810190601f1680156102e45780820380516001836020036101000a031916815260200191505b50945050505050602060405180830381600087803b15801561030557600080fd5b505af1158015610319573d6000803e3d6000fd5b505050506040513d602081101561032f57600080fd5b81019080805190602001909291905050505050505050505050565b60005481565b621e84808156fea26469706673582212208f6ab9bb7038dadc9efabdc2db5810ba3b5c20032da13a4bc5fdaf1385025ca564736f6c63430006090033",
  "immutableReferences": {},
  "source": "// SPDX-License-Identifier: MIT\n// pragma solidity 0.6.9;\npragma solidity 0.6.9;\n\nimport \"@chainlink/contracts/v0.6/interfaces/AggregatorV3Interface.sol\";\nimport {IAMB} from \"./IAMB.sol\";\nimport {IPrice} from \"./IPrice.sol\";\n\ncontract Chainlink {\n    uint256 public constant DEFAULT_GAS_LIMIT = 2e6;\n    int256 public price;\n\n    /**\n     * Network: Kovan\n     * Aggregator: ETH/USD\n     * Address: 0x9326BFA02ADD2366b30bacB125260Af641031331\n     */\n    // constructor() public {\n    //     priceFeed = AggregatorV3Interface(0x9326BFA02ADD2366b30bacB125260Af641031331);\n    // }\n\n    // https://market.link/feeds/b6ae7431-efeb-49e3-9c28-a1feeaabdbd0\n    function getPrice() external {\n        // https://docs.chain.link/docs/ethereum-addresses#config\n        AggregatorV3Interface aggregator =\n            AggregatorV3Interface(0x9326BFA02ADD2366b30bacB125260Af641031331);\n\n        (uint80 _roundId, int256 _price, , uint256 _timestamp, ) =\n            aggregator.latestRoundData();\n        price = _price;\n\n        // https://docs.tokenbridge.net/kovan-sokol-amb-bridge/about-the-kovan-sokol-amb\n        IAMB amb = IAMB(0xFe446bEF1DbF7AFE24E81e05BC8B271C1BA9a560);\n        bytes4 methodSelector = IPrice.setPrice.selector;\n\n        bytes memory data = abi.encodeWithSelector(methodSelector, _price);\n\n        amb.requireToPassMessage(\n            0xcdd440d33D8A1Cb2c53846A6b77586F87e9b4812,\n            data,\n            DEFAULT_GAS_LIMIT\n        );\n\n        // IHellWold hw = IHellWold(0xFFd8fc5998D6DA8C8C0eb1F1e5c6F858D9EdC160);\n        // // string memory res = hw.call(bytes4(keccak256(\"hello()\")));\n        // string memory res = hw.hello();\n        // return res;\n        // return name;\n    }\n}\n",
  "sourcePath": "/Users/wei/Desktop/poa-bridge/kovan/contracts/chainklink.sol",
  "compiler": {
    "name": "solc",
    "version": "0.6.9+commit.3e3065ac.Emscripten.clang"
  },
  "schemaVersion": "3.3.3",
  "updatedAt": "2021-01-28T04:47:53.265Z",
  "networkType": "ethereum",
  "devdoc": {
    "methods": {}
  },
  "userdoc": {
    "methods": {
      "getPrice()": {
        "notice": "Network: Kovan Aggregator: ETH/USD Address: 0x9326BFA02ADD2366b30bacB125260Af641031331"
      }
    }
  }
}