{
  "contractName": "Price",
  "abi": [
    {
      "inputs": [],
      "name": "price",
      "outputs": [
        {
          "internalType": "int256",
          "name": "",
          "type": "int256"
        }
      ],
      "stateMutability": "view",
      "type": "function",
      "constant": true
    },
    {
      "inputs": [
        {
          "internalType": "int256",
          "name": "_price",
          "type": "int256"
        }
      ],
      "name": "setPrice",
      "outputs": [
        {
          "internalType": "int256",
          "name": "",
          "type": "int256"
        }
      ],
      "stateMutability": "payable",
      "type": "function",
      "payable": true
    },
    {
      "inputs": [],
      "name": "getPrice",
      "outputs": [
        {
          "internalType": "int256",
          "name": "",
          "type": "int256"
        }
      ],
      "stateMutability": "view",
      "type": "function",
      "constant": true
    }
  ],
  "bytecode": "0x608060405234801561001057600080fd5b50610117806100206000396000f3fe60806040526004361060305760003560e01c806398d5fdca146035578063a035b1fe14605d578063f7a30806146085575b600080fd5b348015604057600080fd5b50604760c4565b6040518082815260200191505060405180910390f35b348015606857600080fd5b50606f60cd565b6040518082815260200191505060405180910390f35b60ae60048036036020811015609957600080fd5b810190808035906020019092919050505060d3565b6040518082815260200191505060405180910390f35b60008054905090565b60005481565b60008160008190555091905056fea26469706673582212200ee0db262d253030e48277c38b3612dbd4d8f7e28f4245ea27a1818adcd0a63e64736f6c63430006090033",
  "immutableReferences": {},
  "source": "// SPDX-License-Identifier: MIT\n// pragma solidity 0.6.9;\npragma solidity 0.6.9;\n\ncontract Price {\n    int256 public price;\n\n    function setPrice(int256 _price) public payable returns (int256) {\n        price = _price;\n    }\n\n    function getPrice() public view returns (int256) {\n        return price;\n    }\n}\n",
  "sourcePath": "/Users/wei/Desktop/poa-bridge/sokol/contracts/price.sol",
  "compiler": {
    "name": "solc",
    "version": "0.6.9+commit.3e3065ac.Emscripten.clang"
  },
  "schemaVersion": "3.3.3",
  "updatedAt": "2021-01-28T05:03:26.879Z",
  "networkType": "ethereum",
  "devdoc": {
    "methods": {}
  },
  "userdoc": {
    "methods": {}
  }
}